{
  "contractName": "calc",
  "abi": [
    {
      "inputs": [],
      "name": "value",
      "outputs": [
        {
          "internalType": "uint256",
          "name": "",
          "type": "uint256"
        }
      ],
      "stateMutability": "view",
      "type": "function",
      "constant": true
    },
    {
      "inputs": [
        {
          "internalType": "uint256",
          "name": "a",
          "type": "uint256"
        }
      ],
      "name": "sum",
      "outputs": [],
      "stateMutability": "nonpayable",
      "type": "function"
    },
    {
      "inputs": [
        {
          "internalType": "uint256",
          "name": "b",
          "type": "uint256"
        }
      ],
      "name": "minu",
      "outputs": [],
      "stateMutability": "nonpayable",
      "type": "function"
    }
  ],
  "bytecode": "0x608060405234801561001057600080fd5b50610259806100206000396000f3fe608060405234801561001057600080fd5b50600436106100415760003560e01c8063188b85b4146100465780633fa4f245146100625780639838290e14610080575b600080fd5b610060600480360381019061005b9190610113565b61009c565b005b61006a6100b7565b604051610077919061014f565b60405180910390f35b61009a60048036038101906100959190610113565b6100bd565b005b806000808282546100ad9190610199565b9250508190555050565b60005481565b806000808282546100ce91906101ef565b9250508190555050565b600080fd5b6000819050919050565b6100f0816100dd565b81146100fb57600080fd5b50565b60008135905061010d816100e7565b92915050565b600060208284031215610129576101286100d8565b5b6000610137848285016100fe565b91505092915050565b610149816100dd565b82525050565b60006020820190506101646000830184610140565b92915050565b7f4e487b7100000000000000000000000000000000000000000000000000000000600052601160045260246000fd5b60006101a4826100dd565b91506101af836100dd565b9250827fffffffffffffffffffffffffffffffffffffffffffffffffffffffffffffffff038211156101e4576101e361016a565b5b828201905092915050565b60006101fa826100dd565b9150610205836100dd565b9250828210156102185761021761016a565b5b82820390509291505056fea26469706673582212201d1f34b1757a6f16f1377777f724f6e82d7966a54270aaeb2a69b8c836982f0064736f6c634300080d0033",
  "immutableReferences": {},
  "source": "// SPDX-License-Identifier: GPL-3.0\r\n\r\npragma solidity >=0.8.2 <0.9.0;\r\n\r\ncontract calc{\r\n    uint256 public value;\r\n\r\n    function sum(uint a) public{\r\n        value+=a;\r\n    }\r\n    function minu(uint b) public {\r\n        value-=b;\r\n    }\r\n    \r\n}",
  "sourcePath": "C:\\Users\\BAPS\\Desktop\\truff2\\contracts\\calc.sol",
  "compiler": {
    "name": "solc",
    "version": "0.8.13+commit.abaa5c0e.Emscripten.clang"
  },
  "schemaVersion": "3.4.16",
  "updatedAt": "2024-01-30T13:15:02.625Z",
  "networkType": "ethereum",
  "devdoc": {
    "kind": "dev",
    "methods": {},
    "version": 1
  },
  "userdoc": {
    "kind": "user",
    "methods": {},
    "version": 1
  }
}